{
    "contractName": "RoboPunksNFT",
    "abi": [
        {
            "inputs": [],
            "stateMutability": "payable",
            "type": "constructor"
        },
        {
            "anonymous": false,
            "inputs": [
                {
                    "indexed": true,
                    "internalType": "address",
                    "name": "owner",
                    "type": "address"
                },
                {
                    "indexed": true,
                    "internalType": "address",
                    "name": "approved",
                    "type": "address"
                },
                {
                    "indexed": true,
                    "internalType": "uint256",
                    "name": "tokenId",
                    "type": "uint256"
                }
            ],
            "name": "Approval",
            "type": "event"
        },
        {
            "anonymous": false,
            "inputs": [
                {
                    "indexed": true,
                    "internalType": "address",
                    "name": "owner",
                    "type": "address"
                },
                {
                    "indexed": true,
                    "internalType": "address",
                    "name": "operator",
                    "type": "address"
                },
                {
                    "indexed": false,
                    "internalType": "bool",
                    "name": "approved",
                    "type": "bool"
                }
            ],
            "name": "ApprovalForAll",
            "type": "event"
        },
        {
            "anonymous": false,
            "inputs": [
                {
                    "indexed": true,
                    "internalType": "address",
                    "name": "previousOwner",
                    "type": "address"
                },
                {
                    "indexed": true,
                    "internalType": "address",
                    "name": "newOwner",
                    "type": "address"
                }
            ],
            "name": "OwnershipTransferred",
            "type": "event"
        },
        {
            "anonymous": false,
            "inputs": [
                {
                    "indexed": true,
                    "internalType": "address",
                    "name": "from",
                    "type": "address"
                },
                {
                    "indexed": true,
                    "internalType": "address",
                    "name": "to",
                    "type": "address"
                },
                {
                    "indexed": true,
                    "internalType": "uint256",
                    "name": "tokenId",
                    "type": "uint256"
                }
            ],
            "name": "Transfer",
            "type": "event"
        },
        {
            "inputs": [
                {
                    "internalType": "address",
                    "name": "to",
                    "type": "address"
                },
                {
                    "internalType": "uint256",
                    "name": "tokenId",
                    "type": "uint256"
                }
            ],
            "name": "approve",
            "outputs": [],
            "stateMutability": "nonpayable",
            "type": "function"
        },
        {
            "inputs": [
                {
                    "internalType": "address",
                    "name": "owner",
                    "type": "address"
                }
            ],
            "name": "balanceOf",
            "outputs": [
                {
                    "internalType": "uint256",
                    "name": "",
                    "type": "uint256"
                }
            ],
            "stateMutability": "view",
            "type": "function"
        },
        {
            "inputs": [
                {
                    "internalType": "uint256",
                    "name": "tokenId",
                    "type": "uint256"
                }
            ],
            "name": "getApproved",
            "outputs": [
                {
                    "internalType": "address",
                    "name": "",
                    "type": "address"
                }
            ],
            "stateMutability": "view",
            "type": "function"
        },
        {
            "inputs": [
                {
                    "internalType": "address",
                    "name": "owner",
                    "type": "address"
                },
                {
                    "internalType": "address",
                    "name": "operator",
                    "type": "address"
                }
            ],
            "name": "isApprovedForAll",
            "outputs": [
                {
                    "internalType": "bool",
                    "name": "",
                    "type": "bool"
                }
            ],
            "stateMutability": "view",
            "type": "function"
        },
        {
            "inputs": [],
            "name": "isPublicMintEnabled",
            "outputs": [
                {
                    "internalType": "bool",
                    "name": "",
                    "type": "bool"
                }
            ],
            "stateMutability": "view",
            "type": "function"
        },
        {
            "inputs": [],
            "name": "maxPerWallet",
            "outputs": [
                {
                    "internalType": "uint256",
                    "name": "",
                    "type": "uint256"
                }
            ],
            "stateMutability": "view",
            "type": "function"
        },
        {
            "inputs": [],
            "name": "maxSupply",
            "outputs": [
                {
                    "internalType": "uint256",
                    "name": "",
                    "type": "uint256"
                }
            ],
            "stateMutability": "view",
            "type": "function"
        },
        {
            "inputs": [
                {
                    "internalType": "uint256",
                    "name": "quantity_",
                    "type": "uint256"
                }
            ],
            "name": "mint",
            "outputs": [],
            "stateMutability": "payable",
            "type": "function"
        },
        {
            "inputs": [],
            "name": "mintPrice",
            "outputs": [
                {
                    "internalType": "uint256",
                    "name": "",
                    "type": "uint256"
                }
            ],
            "stateMutability": "view",
            "type": "function"
        },
        {
            "inputs": [],
            "name": "name",
            "outputs": [
                {
                    "internalType": "string",
                    "name": "",
                    "type": "string"
                }
            ],
            "stateMutability": "view",
            "type": "function"
        },
        {
            "inputs": [],
            "name": "owner",
            "outputs": [
                {
                    "internalType": "address",
                    "name": "",
                    "type": "address"
                }
            ],
            "stateMutability": "view",
            "type": "function"
        },
        {
            "inputs": [
                {
                    "internalType": "uint256",
                    "name": "tokenId",
                    "type": "uint256"
                }
            ],
            "name": "ownerOf",
            "outputs": [
                {
                    "internalType": "address",
                    "name": "",
                    "type": "address"
                }
            ],
            "stateMutability": "view",
            "type": "function"
        },
        {
            "inputs": [],
            "name": "renounceOwnership",
            "outputs": [],
            "stateMutability": "nonpayable",
            "type": "function"
        },
        {
            "inputs": [
                {
                    "internalType": "address",
                    "name": "from",
                    "type": "address"
                },
                {
                    "internalType": "address",
                    "name": "to",
                    "type": "address"
                },
                {
                    "internalType": "uint256",
                    "name": "tokenId",
                    "type": "uint256"
                }
            ],
            "name": "safeTransferFrom",
            "outputs": [],
            "stateMutability": "nonpayable",
            "type": "function"
        },
        {
            "inputs": [
                {
                    "internalType": "address",
                    "name": "from",
                    "type": "address"
                },
                {
                    "internalType": "address",
                    "name": "to",
                    "type": "address"
                },
                {
                    "internalType": "uint256",
                    "name": "tokenId",
                    "type": "uint256"
                },
                {
                    "internalType": "bytes",
                    "name": "data",
                    "type": "bytes"
                }
            ],
            "name": "safeTransferFrom",
            "outputs": [],
            "stateMutability": "nonpayable",
            "type": "function"
        },
        {
            "inputs": [
                {
                    "internalType": "address",
                    "name": "operator",
                    "type": "address"
                },
                {
                    "internalType": "bool",
                    "name": "approved",
                    "type": "bool"
                }
            ],
            "name": "setApprovalForAll",
            "outputs": [],
            "stateMutability": "nonpayable",
            "type": "function"
        },
        {
            "inputs": [
                {
                    "internalType": "string",
                    "name": "baseTokenURI_",
                    "type": "string"
                }
            ],
            "name": "setBaseTokenURI",
            "outputs": [],
            "stateMutability": "nonpayable",
            "type": "function"
        },
        {
            "inputs": [
                {
                    "internalType": "bool",
                    "name": "isPublicMintEnabled_",
                    "type": "bool"
                }
            ],
            "name": "setIsPublicMintEnabled",
            "outputs": [],
            "stateMutability": "nonpayable",
            "type": "function"
        },
        {
            "inputs": [
                {
                    "internalType": "bytes4",
                    "name": "interfaceId",
                    "type": "bytes4"
                }
            ],
            "name": "supportsInterface",
            "outputs": [
                {
                    "internalType": "bool",
                    "name": "",
                    "type": "bool"
                }
            ],
            "stateMutability": "view",
            "type": "function"
        },
        {
            "inputs": [],
            "name": "symbol",
            "outputs": [
                {
                    "internalType": "string",
                    "name": "",
                    "type": "string"
                }
            ],
            "stateMutability": "view",
            "type": "function"
        },
        {
            "inputs": [
                {
                    "internalType": "uint256",
                    "name": "tokenId_",
                    "type": "uint256"
                }
            ],
            "name": "tokenURI",
            "outputs": [
                {
                    "internalType": "string",
                    "name": "",
                    "type": "string"
                }
            ],
            "stateMutability": "view",
            "type": "function"
        },
        {
            "inputs": [],
            "name": "totalSupply",
            "outputs": [
                {
                    "internalType": "uint256",
                    "name": "",
                    "type": "uint256"
                }
            ],
            "stateMutability": "view",
            "type": "function"
        },
        {
            "inputs": [
                {
                    "internalType": "address",
                    "name": "from",
                    "type": "address"
                },
                {
                    "internalType": "address",
                    "name": "to",
                    "type": "address"
                },
                {
                    "internalType": "uint256",
                    "name": "tokenId",
                    "type": "uint256"
                }
            ],
            "name": "transferFrom",
            "outputs": [],
            "stateMutability": "nonpayable",
            "type": "function"
        },
        {
            "inputs": [
                {
                    "internalType": "address",
                    "name": "newOwner",
                    "type": "address"
                }
            ],
            "name": "transferOwnership",
            "outputs": [],
            "stateMutability": "nonpayable",
            "type": "function"
        },
        {
            "inputs": [
                {
                    "internalType": "address",
                    "name": "",
                    "type": "address"
                }
            ],
            "name": "walletMints",
            "outputs": [
                {
                    "internalType": "uint256",
                    "name": "",
                    "type": "uint256"
                }
            ],
            "stateMutability": "view",
            "type": "function"
        },
        {
            "inputs": [],
            "name": "withDraw",
            "outputs": [],
            "stateMutability": "nonpayable",
            "type": "function"
        },
        {
            "inputs": [],
            "name": "withDrawWallet",
            "outputs": [
                {
                    "internalType": "address payable",
                    "name": "",
                    "type": "address"
                }
            ],
            "stateMutability": "view",
            "type": "function"
        }
    ],
    "bytecode": "6009608090815268526f626f50756e6b7360b81b60a052610100604052600260c090815261052560f41b60e05260006200003a83826200017c565b5060016200004982826200017c565b50505062000066620000606200008160201b60201c565b62000085565b66470de4df82000060075560006008556002600a5562000248565b3390565b600680546001600160a01b038381166001600160a01b0319831681179093556040519116919082907f8be0079c531659141344cd1fd0a4f28419497f9722a3daafe3b4186f6b6457e090600090a35050565b634e487b7160e01b600052604160045260246000fd5b600181811c908216806200010257607f821691505b6020821081036200012357634e487b7160e01b600052602260045260246000fd5b50919050565b601f8211156200017757600081815260208120601f850160051c81016020861015620001525750805b601f850160051c820191505b8181101562000173578281556001016200015e565b5050505b505050565b81516001600160401b03811115620001985762000198620000d7565b620001b081620001a98454620000ed565b8462000129565b602080601f831160018114620001e85760008415620001cf5750858301515b600019600386901b1c1916600185901b17855562000173565b600085815260208120601f198616915b828110156200021957888601518255948401946001909101908401620001f8565b5085821015620002385787850151600019600388901b60f8161c191681555b5050505050600190811b01905550565b611a1f80620002586000396000f3fe60806040526004361061019c5760003560e01c80636817c76c116100ec578063b88d4fde1161008a578063d5abeb0111610064578063d5abeb011461046c578063e985e9c514610482578063f0293fd3146104a2578063f2fde38b146104cf57600080fd5b8063b88d4fde1461040c578063bca0e9e01461042c578063c87b56dd1461044c57600080fd5b80638da5cb5b116100c65780638da5cb5b146103a657806395d89b41146103c4578063a0712d68146103d9578063a22cb465146103ec57600080fd5b80636817c76c1461035b57806370a0823114610371578063715018a61461039157600080fd5b806318160ddd1161015957806330176e131161013357806330176e13146102e557806342842e0e14610305578063453c2310146103255780636352211e1461033b57600080fd5b806318160ddd146102815780632373ac22146102a557806323b872dd146102c557600080fd5b80630116bc2d146101a157806301ffc9a7146101d057806306fdde03146101f0578063081812fc14610212578063095ea7b31461024a5780630fdb1c101461026c575b600080fd5b3480156101ad57600080fd5b50600b546101bb9060ff1681565b60405190151581526020015b60405180910390f35b3480156101dc57600080fd5b506101bb6101eb36600461134f565b6104ef565b3480156101fc57600080fd5b50610205610541565b6040516101c791906113c3565b34801561021e57600080fd5b5061023261022d3660046113d6565b6105d3565b6040516001600160a01b0390911681526020016101c7565b34801561025657600080fd5b5061026a61026536600461140b565b6105fa565b005b34801561027857600080fd5b5061026a610714565b34801561028d57600080fd5b5061029760085481565b6040519081526020016101c7565b3480156102b157600080fd5b5061026a6102c0366004611445565b6107b4565b3480156102d157600080fd5b5061026a6102e0366004611460565b6107cf565b3480156102f157600080fd5b5061026a61030036600461149c565b610800565b34801561031157600080fd5b5061026a610320366004611460565b610815565b34801561033157600080fd5b50610297600a5481565b34801561034757600080fd5b506102326103563660046113d6565b610830565b34801561036757600080fd5b5061029760075481565b34801561037d57600080fd5b5061029761038c36600461150e565b610890565b34801561039d57600080fd5b5061026a610916565b3480156103b257600080fd5b506006546001600160a01b0316610232565b3480156103d057600080fd5b5061020561092a565b61026a6103e73660046113d6565b610939565b3480156103f857600080fd5b5061026a610407366004611529565b610a7f565b34801561041857600080fd5b5061026a610427366004611572565b610a8e565b34801561043857600080fd5b50600d54610232906001600160a01b031681565b34801561045857600080fd5b506102056104673660046113d6565b610ac6565b34801561047857600080fd5b5061029760095481565b34801561048e57600080fd5b506101bb61049d36600461164e565b610b57565b3480156104ae57600080fd5b506102976104bd36600461150e565b600e6020526000908152604090205481565b3480156104db57600080fd5b5061026a6104ea36600461150e565b610b85565b60006001600160e01b031982166380ac58cd60e01b148061052057506001600160e01b03198216635b5e139f60e01b145b8061053b57506301ffc9a760e01b6001600160e01b03198316145b92915050565b60606000805461055090611678565b80601f016020809104026020016040519081016040528092919081815260200182805461057c90611678565b80156105c95780601f1061059e576101008083540402835291602001916105c9565b820191906000526020600020905b8154815290600101906020018083116105ac57829003601f168201915b5050505050905090565b60006105de82610bfb565b506000908152600460205260409020546001600160a01b031690565b600061060582610830565b9050806001600160a01b0316836001600160a01b0316036106775760405162461bcd60e51b815260206004820152602160248201527f4552433732313a20617070726f76616c20746f2063757272656e74206f776e656044820152603960f91b60648201526084015b60405180910390fd5b336001600160a01b038216148061069357506106938133610b57565b6107055760405162461bcd60e51b815260206004820152603d60248201527f4552433732313a20617070726f76652063616c6c6572206973206e6f7420746f60448201527f6b656e206f776e6572206f7220617070726f76656420666f7220616c6c000000606482015260840161066e565b61070f8383610c5a565b505050565b61071c610cc8565b600d546040516000916001600160a01b03169047908381818185875af1925050503d8060008114610769576040519150601f19603f3d011682016040523d82523d6000602084013e61076e565b606091505b50509050806107b15760405162461bcd60e51b815260206004820152600f60248201526e1dda5d1a191c985dc811985a5b1959608a1b604482015260640161066e565b50565b6107bc610cc8565b600b805460ff1916911515919091179055565b6107d93382610d22565b6107f55760405162461bcd60e51b815260040161066e906116b2565b61070f838383610d81565b610808610cc8565b600c61070f82848361174d565b61070f83838360405180602001604052806000815250610a8e565b6000818152600260205260408120546001600160a01b03168061053b5760405162461bcd60e51b8152602060048201526018602482015277115490cdcc8c4e881a5b9d985b1a59081d1bdad95b88125160421b604482015260640161066e565b60006001600160a01b0382166108fa5760405162461bcd60e51b815260206004820152602960248201527f4552433732313a2061646472657373207a65726f206973206e6f7420612076616044820152683634b21037bbb732b960b91b606482015260840161066e565b506001600160a01b031660009081526003602052604090205490565b61091e610cc8565b6109286000610ef2565b565b60606001805461055090611678565b600b5460ff1661098b5760405162461bcd60e51b815260206004820152601960248201527f4d696e74696e67206973204e6f7420416c6c6f77656420524e00000000000000604482015260640161066e565b6007546109989082611824565b34146109d95760405162461bcd60e51b815260206004820152601060248201526f57726f6e67204d696e742056616c756560801b604482015260640161066e565b600954816008546109ea919061183b565b1115610a225760405162461bcd60e51b815260206004820152600760248201526614dbdb1913dd5d60ca1b604482015260640161066e565b600a54336000908152600e6020526040902054610a4090839061183b565b11156107b15760405162461bcd60e51b815260206004820152600e60248201526d1b1a5b5a5d08115e18d95959195960921b604482015260640161066e565b610a8a338383610f44565b5050565b610a983383610d22565b610ab45760405162461bcd60e51b815260040161066e906116b2565b610ac084848484611012565b50505050565b6000818152600260205260409020546060906001600160a01b0316610b255760405162461bcd60e51b8152602060048201526015602482015274546f6b656e20446f6573204e6f742045786973747360581b604482015260640161066e565b600c610b3083611045565b604051602001610b4192919061184e565b6040516020818303038152906040529050919050565b6001600160a01b03918216600090815260056020908152604080832093909416825291909152205460ff1690565b610b8d610cc8565b6001600160a01b038116610bf25760405162461bcd60e51b815260206004820152602660248201527f4f776e61626c653a206e6577206f776e657220697320746865207a65726f206160448201526564647265737360d01b606482015260840161066e565b6107b181610ef2565b6000818152600260205260409020546001600160a01b03166107b15760405162461bcd60e51b8152602060048201526018602482015277115490cdcc8c4e881a5b9d985b1a59081d1bdad95b88125160421b604482015260640161066e565b600081815260046020526040902080546001600160a01b0319166001600160a01b0384169081179091558190610c8f82610830565b6001600160a01b03167f8c5be1e5ebec7d5bd14f71427d1e84f3dd0314c0f7b2291e5b200ac8c7c3b92560405160405180910390a45050565b6006546001600160a01b031633146109285760405162461bcd60e51b815260206004820181905260248201527f4f776e61626c653a2063616c6c6572206973206e6f7420746865206f776e6572604482015260640161066e565b600080610d2e83610830565b9050806001600160a01b0316846001600160a01b03161480610d555750610d558185610b57565b80610d795750836001600160a01b0316610d6e846105d3565b6001600160a01b0316145b949350505050565b826001600160a01b0316610d9482610830565b6001600160a01b031614610dba5760405162461bcd60e51b815260040161066e906118e5565b6001600160a01b038216610e1c5760405162461bcd60e51b8152602060048201526024808201527f4552433732313a207472616e7366657220746f20746865207a65726f206164646044820152637265737360e01b606482015260840161066e565b610e2983838360016110d8565b826001600160a01b0316610e3c82610830565b6001600160a01b031614610e625760405162461bcd60e51b815260040161066e906118e5565b600081815260046020908152604080832080546001600160a01b03199081169091556001600160a01b0387811680865260038552838620805460001901905590871680865283862080546001019055868652600290945282852080549092168417909155905184937fddf252ad1be2c89b69c2b068fc378daa952ba7f163c4a11628f55a4df523b3ef91a4505050565b600680546001600160a01b038381166001600160a01b0319831681179093556040519116919082907f8be0079c531659141344cd1fd0a4f28419497f9722a3daafe3b4186f6b6457e090600090a35050565b816001600160a01b0316836001600160a01b031603610fa55760405162461bcd60e51b815260206004820152601960248201527f4552433732313a20617070726f766520746f2063616c6c657200000000000000604482015260640161066e565b6001600160a01b03838116600081815260056020908152604080832094871680845294825291829020805460ff191686151590811790915591519182527f17307eab39ab6107e8899845ad3d59bd9653f200f220920489ca2b5937696c31910160405180910390a3505050565b61101d848484610d81565b61102984848484611160565b610ac05760405162461bcd60e51b815260040161066e9061192a565b6060600061105283611261565b600101905060008167ffffffffffffffff8111156110725761107261155c565b6040519080825280601f01601f19166020018201604052801561109c576020820181803683370190505b5090508181016020015b600019016f181899199a1a9b1b9c1cb0b131b232b360811b600a86061a8153600a85049450846110a657509392505050565b6001811115610ac0576001600160a01b0384161561111e576001600160a01b0384166000908152600360205260408120805483929061111890849061197c565b90915550505b6001600160a01b03831615610ac0576001600160a01b0383166000908152600360205260408120805483929061115590849061183b565b909155505050505050565b60006001600160a01b0384163b1561125657604051630a85bd0160e11b81526001600160a01b0385169063150b7a02906111a490339089908890889060040161198f565b6020604051808303816000875af19250505080156111df575060408051601f3d908101601f191682019092526111dc918101906119cc565b60015b61123c573d80801561120d576040519150601f19603f3d011682016040523d82523d6000602084013e611212565b606091505b5080516000036112345760405162461bcd60e51b815260040161066e9061192a565b805181602001fd5b6001600160e01b031916630a85bd0160e11b149050610d79565b506001949350505050565b60008072184f03e93ff9f4daa797ed6e38ed64bf6a1f0160401b83106112a05772184f03e93ff9f4daa797ed6e38ed64bf6a1f0160401b830492506040015b6d04ee2d6d415b85acef810000000083106112cc576d04ee2d6d415b85acef8100000000830492506020015b662386f26fc1000083106112ea57662386f26fc10000830492506010015b6305f5e1008310611302576305f5e100830492506008015b612710831061131657612710830492506004015b60648310611328576064830492506002015b600a831061053b5760010192915050565b6001600160e01b0319811681146107b157600080fd5b60006020828403121561136157600080fd5b813561136c81611339565b9392505050565b60005b8381101561138e578181015183820152602001611376565b50506000910152565b600081518084526113af816020860160208601611373565b601f01601f19169290920160200192915050565b60208152600061136c6020830184611397565b6000602082840312156113e857600080fd5b5035919050565b80356001600160a01b038116811461140657600080fd5b919050565b6000806040838503121561141e57600080fd5b611427836113ef565b946020939093013593505050565b8035801515811461140657600080fd5b60006020828403121561145757600080fd5b61136c82611435565b60008060006060848603121561147557600080fd5b61147e846113ef565b925061148c602085016113ef565b9150604084013590509250925092565b600080602083850312156114af57600080fd5b823567ffffffffffffffff808211156114c757600080fd5b818501915085601f8301126114db57600080fd5b8135818111156114ea57600080fd5b8660208285010111156114fc57600080fd5b60209290920196919550909350505050565b60006020828403121561152057600080fd5b61136c826113ef565b6000806040838503121561153c57600080fd5b611545836113ef565b915061155360208401611435565b90509250929050565b634e487b7160e01b600052604160045260246000fd5b6000806000806080858703121561158857600080fd5b611591856113ef565b935061159f602086016113ef565b925060408501359150606085013567ffffffffffffffff808211156115c357600080fd5b818701915087601f8301126115d757600080fd5b8135818111156115e9576115e961155c565b604051601f8201601f19908116603f011681019083821181831017156116115761161161155c565b816040528281528a602084870101111561162a57600080fd5b82602086016020830137600060208483010152809550505050505092959194509250565b6000806040838503121561166157600080fd5b61166a836113ef565b9150611553602084016113ef565b600181811c9082168061168c57607f821691505b6020821081036116ac57634e487b7160e01b600052602260045260246000fd5b50919050565b6020808252602d908201527f4552433732313a2063616c6c6572206973206e6f7420746f6b656e206f776e6560408201526c1c881bdc88185c1c1c9bdd9959609a1b606082015260800190565b601f82111561070f57600081815260208120601f850160051c810160208610156117265750805b601f850160051c820191505b8181101561174557828155600101611732565b505050505050565b67ffffffffffffffff8311156117655761176561155c565b611779836117738354611678565b836116ff565b6000601f8411600181146117ad57600085156117955750838201355b600019600387901b1c1916600186901b178355611807565b600083815260209020601f19861690835b828110156117de57868501358255602094850194600190920191016117be565b50868210156117fb5760001960f88860031b161c19848701351681555b505060018560011b0183555b5050505050565b634e487b7160e01b600052601160045260246000fd5b808202811582820484141761053b5761053b61180e565b8082018082111561053b5761053b61180e565b600080845461185c81611678565b600182811680156118745760018114611889576118b8565b60ff19841687528215158302870194506118b8565b8860005260208060002060005b858110156118af5781548a820152908401908201611896565b50505082870194505b5050505083516118cc818360208801611373565b64173539b7b760d91b9101908152600501949350505050565b60208082526025908201527f4552433732313a207472616e736665722066726f6d20696e636f72726563742060408201526437bbb732b960d91b606082015260800190565b60208082526032908201527f4552433732313a207472616e7366657220746f206e6f6e20455243373231526560408201527131b2b4bb32b91034b6b83632b6b2b73a32b960711b606082015260800190565b8181038181111561053b5761053b61180e565b6001600160a01b03858116825284166020820152604081018390526080606082018190526000906119c290830184611397565b9695505050505050565b6000602082840312156119de57600080fd5b815161136c8161133956fea2646970667358221220a93538fa7667b2c08cbf122271ea4027c1783910dbf3e73f74caa18169a29d7d64736f6c63430008110033",
    "sourcePath": "/home/uzair/Desktop/RoboPunk-Minting/full-mint-website/hardhat/contracts/RoboPunkNFT.sol",
    "compiler": {
        "name": "solc",
        "version": "0.8.17+commit.8df45f5f"
    },
    "functionHashes": {
        "approve(address,uint256)": "095ea7b3",
        "balanceOf(address)": "70a08231",
        "getApproved(uint256)": "081812fc",
        "isApprovedForAll(address,address)": "e985e9c5",
        "isPublicMintEnabled()": "0116bc2d",
        "maxPerWallet()": "453c2310",
        "maxSupply()": "d5abeb01",
        "mint(uint256)": "a0712d68",
        "mintPrice()": "6817c76c",
        "name()": "06fdde03",
        "owner()": "8da5cb5b",
        "ownerOf(uint256)": "6352211e",
        "renounceOwnership()": "715018a6",
        "safeTransferFrom(address,address,uint256)": "42842e0e",
        "safeTransferFrom(address,address,uint256,bytes)": "b88d4fde",
        "setApprovalForAll(address,bool)": "a22cb465",
        "setBaseTokenURI(string)": "30176e13",
        "setIsPublicMintEnabled(bool)": "2373ac22",
        "supportsInterface(bytes4)": "01ffc9a7",
        "symbol()": "95d89b41",
        "tokenURI(uint256)": "c87b56dd",
        "totalSupply()": "18160ddd",
        "transferFrom(address,address,uint256)": "23b872dd",
        "transferOwnership(address)": "f2fde38b",
        "walletMints(address)": "f0293fd3",
        "withDraw()": "0fdb1c10",
        "withDrawWallet()": "bca0e9e0"
    },
    "gasEstimates": {
        "creation": {
            "codeDepositCost": "1337400",
            "executionCost": "infinite",
            "totalCost": "infinite"
        },
        "external": {
            "approve(address,uint256)": "infinite",
            "balanceOf(address)": "2657",
            "getApproved(uint256)": "4814",
            "isApprovedForAll(address,address)": "infinite",
            "isPublicMintEnabled()": "2323",
            "maxPerWallet()": "2384",
            "maxSupply()": "2339",
            "mint(uint256)": "infinite",
            "mintPrice()": "2341",
            "name()": "infinite",
            "owner()": "2376",
            "ownerOf(uint256)": "2649",
            "renounceOwnership()": "infinite",
            "safeTransferFrom(address,address,uint256)": "infinite",
            "safeTransferFrom(address,address,uint256,bytes)": "infinite",
            "setApprovalForAll(address,bool)": "infinite",
            "setBaseTokenURI(string)": "infinite",
            "setIsPublicMintEnabled(bool)": "26761",
            "supportsInterface(bytes4)": "556",
            "symbol()": "infinite",
            "tokenURI(uint256)": "infinite",
            "totalSupply()": "2341",
            "transferFrom(address,address,uint256)": "infinite",
            "transferOwnership(address)": "28446",
            "walletMints(address)": "2607",
            "withDraw()": "infinite",
            "withDrawWallet()": "2404"
        }
    }
}