{
  "_format": "hh-sol-artifact-1",
  "contractName": "RoboPunk",
  "sourceName": "contracts/RoboPunk.sol",
  "abi": [
    {
      "inputs": [],
      "stateMutability": "payable",
      "type": "constructor"
    },
    {
      "anonymous": false,
      "inputs": [
        {
          "indexed": true,
          "internalType": "address",
          "name": "owner",
          "type": "address"
        },
        {
          "indexed": true,
          "internalType": "address",
          "name": "approved",
          "type": "address"
        },
        {
          "indexed": true,
          "internalType": "uint256",
          "name": "tokenId",
          "type": "uint256"
        }
      ],
      "name": "Approval",
      "type": "event"
    },
    {
      "anonymous": false,
      "inputs": [
        {
          "indexed": true,
          "internalType": "address",
          "name": "owner",
          "type": "address"
        },
        {
          "indexed": true,
          "internalType": "address",
          "name": "operator",
          "type": "address"
        },
        {
          "indexed": false,
          "internalType": "bool",
          "name": "approved",
          "type": "bool"
        }
      ],
      "name": "ApprovalForAll",
      "type": "event"
    },
    {
      "anonymous": false,
      "inputs": [
        {
          "indexed": true,
          "internalType": "address",
          "name": "previousOwner",
          "type": "address"
        },
        {
          "indexed": true,
          "internalType": "address",
          "name": "newOwner",
          "type": "address"
        }
      ],
      "name": "OwnershipTransferred",
      "type": "event"
    },
    {
      "anonymous": false,
      "inputs": [
        {
          "indexed": true,
          "internalType": "address",
          "name": "from",
          "type": "address"
        },
        {
          "indexed": true,
          "internalType": "address",
          "name": "to",
          "type": "address"
        },
        {
          "indexed": true,
          "internalType": "uint256",
          "name": "tokenId",
          "type": "uint256"
        }
      ],
      "name": "Transfer",
      "type": "event"
    },
    {
      "inputs": [
        {
          "internalType": "address",
          "name": "to",
          "type": "address"
        },
        {
          "internalType": "uint256",
          "name": "tokenId",
          "type": "uint256"
        }
      ],
      "name": "approve",
      "outputs": [],
      "stateMutability": "nonpayable",
      "type": "function"
    },
    {
      "inputs": [
        {
          "internalType": "address",
          "name": "owner",
          "type": "address"
        }
      ],
      "name": "balanceOf",
      "outputs": [
        {
          "internalType": "uint256",
          "name": "",
          "type": "uint256"
        }
      ],
      "stateMutability": "view",
      "type": "function"
    },
    {
      "inputs": [
        {
          "internalType": "uint256",
          "name": "tokenId",
          "type": "uint256"
        }
      ],
      "name": "getApproved",
      "outputs": [
        {
          "internalType": "address",
          "name": "",
          "type": "address"
        }
      ],
      "stateMutability": "view",
      "type": "function"
    },
    {
      "inputs": [
        {
          "internalType": "address",
          "name": "owner",
          "type": "address"
        },
        {
          "internalType": "address",
          "name": "operator",
          "type": "address"
        }
      ],
      "name": "isApprovedForAll",
      "outputs": [
        {
          "internalType": "bool",
          "name": "",
          "type": "bool"
        }
      ],
      "stateMutability": "view",
      "type": "function"
    },
    {
      "inputs": [],
      "name": "isPublicMintEnabled",
      "outputs": [
        {
          "internalType": "bool",
          "name": "",
          "type": "bool"
        }
      ],
      "stateMutability": "view",
      "type": "function"
    },
    {
      "inputs": [],
      "name": "maxPerWallet",
      "outputs": [
        {
          "internalType": "uint256",
          "name": "",
          "type": "uint256"
        }
      ],
      "stateMutability": "view",
      "type": "function"
    },
    {
      "inputs": [],
      "name": "maxSupply",
      "outputs": [
        {
          "internalType": "uint256",
          "name": "",
          "type": "uint256"
        }
      ],
      "stateMutability": "view",
      "type": "function"
    },
    {
      "inputs": [
        {
          "internalType": "string",
          "name": "tokenURI_",
          "type": "string"
        }
      ],
      "name": "mint",
      "outputs": [],
      "stateMutability": "payable",
      "type": "function"
    },
    {
      "inputs": [],
      "name": "mintPrice",
      "outputs": [
        {
          "internalType": "uint256",
          "name": "",
          "type": "uint256"
        }
      ],
      "stateMutability": "view",
      "type": "function"
    },
    {
      "inputs": [],
      "name": "name",
      "outputs": [
        {
          "internalType": "string",
          "name": "",
          "type": "string"
        }
      ],
      "stateMutability": "view",
      "type": "function"
    },
    {
      "inputs": [],
      "name": "owner",
      "outputs": [
        {
          "internalType": "address",
          "name": "",
          "type": "address"
        }
      ],
      "stateMutability": "view",
      "type": "function"
    },
    {
      "inputs": [
        {
          "internalType": "uint256",
          "name": "tokenId",
          "type": "uint256"
        }
      ],
      "name": "ownerOf",
      "outputs": [
        {
          "internalType": "address",
          "name": "",
          "type": "address"
        }
      ],
      "stateMutability": "view",
      "type": "function"
    },
    {
      "inputs": [],
      "name": "renounceOwnership",
      "outputs": [],
      "stateMutability": "nonpayable",
      "type": "function"
    },
    {
      "inputs": [
        {
          "internalType": "address",
          "name": "from",
          "type": "address"
        },
        {
          "internalType": "address",
          "name": "to",
          "type": "address"
        },
        {
          "internalType": "uint256",
          "name": "tokenId",
          "type": "uint256"
        }
      ],
      "name": "safeTransferFrom",
      "outputs": [],
      "stateMutability": "nonpayable",
      "type": "function"
    },
    {
      "inputs": [
        {
          "internalType": "address",
          "name": "from",
          "type": "address"
        },
        {
          "internalType": "address",
          "name": "to",
          "type": "address"
        },
        {
          "internalType": "uint256",
          "name": "tokenId",
          "type": "uint256"
        },
        {
          "internalType": "bytes",
          "name": "data",
          "type": "bytes"
        }
      ],
      "name": "safeTransferFrom",
      "outputs": [],
      "stateMutability": "nonpayable",
      "type": "function"
    },
    {
      "inputs": [
        {
          "internalType": "address",
          "name": "operator",
          "type": "address"
        },
        {
          "internalType": "bool",
          "name": "approved",
          "type": "bool"
        }
      ],
      "name": "setApprovalForAll",
      "outputs": [],
      "stateMutability": "nonpayable",
      "type": "function"
    },
    {
      "inputs": [
        {
          "internalType": "bool",
          "name": "isPublicMintEnabled_",
          "type": "bool"
        }
      ],
      "name": "setIsPublicMintEnabled",
      "outputs": [],
      "stateMutability": "nonpayable",
      "type": "function"
    },
    {
      "inputs": [
        {
          "internalType": "bytes4",
          "name": "interfaceId",
          "type": "bytes4"
        }
      ],
      "name": "supportsInterface",
      "outputs": [
        {
          "internalType": "bool",
          "name": "",
          "type": "bool"
        }
      ],
      "stateMutability": "view",
      "type": "function"
    },
    {
      "inputs": [],
      "name": "symbol",
      "outputs": [
        {
          "internalType": "string",
          "name": "",
          "type": "string"
        }
      ],
      "stateMutability": "view",
      "type": "function"
    },
    {
      "inputs": [
        {
          "internalType": "uint256",
          "name": "tokenId",
          "type": "uint256"
        }
      ],
      "name": "tokenURI",
      "outputs": [
        {
          "internalType": "string",
          "name": "",
          "type": "string"
        }
      ],
      "stateMutability": "view",
      "type": "function"
    },
    {
      "inputs": [],
      "name": "totalSupply",
      "outputs": [
        {
          "internalType": "uint256",
          "name": "",
          "type": "uint256"
        }
      ],
      "stateMutability": "view",
      "type": "function"
    },
    {
      "inputs": [
        {
          "internalType": "address",
          "name": "from",
          "type": "address"
        },
        {
          "internalType": "address",
          "name": "to",
          "type": "address"
        },
        {
          "internalType": "uint256",
          "name": "tokenId",
          "type": "uint256"
        }
      ],
      "name": "transferFrom",
      "outputs": [],
      "stateMutability": "nonpayable",
      "type": "function"
    },
    {
      "inputs": [
        {
          "internalType": "address",
          "name": "newOwner",
          "type": "address"
        }
      ],
      "name": "transferOwnership",
      "outputs": [],
      "stateMutability": "nonpayable",
      "type": "function"
    },
    {
      "inputs": [],
      "name": "viewBalance",
      "outputs": [
        {
          "internalType": "uint256",
          "name": "",
          "type": "uint256"
        }
      ],
      "stateMutability": "view",
      "type": "function"
    },
    {
      "inputs": [
        {
          "internalType": "address",
          "name": "",
          "type": "address"
        }
      ],
      "name": "walletMints",
      "outputs": [
        {
          "internalType": "uint8",
          "name": "",
          "type": "uint8"
        }
      ],
      "stateMutability": "view",
      "type": "function"
    },
    {
      "inputs": [],
      "name": "withdrawMoney",
      "outputs": [],
      "stateMutability": "nonpayable",
      "type": "function"
    }
  ],
  "bytecode": "0x608060405266b1a2bc2ec500006008556103e86009556003600b556040518060400160405280600981526020017f526f626f50756e6b7300000000000000000000000000000000000000000000008152506040518060400160405280600281526020017f525000000000000000000000000000000000000000000000000000000000000081525081600090816200009791906200041a565b508060019081620000a991906200041a565b505050620000cc620000c0620000d260201b60201c565b620000da60201b60201c565b62000501565b600033905090565b6000600660009054906101000a900473ffffffffffffffffffffffffffffffffffffffff16905081600660006101000a81548173ffffffffffffffffffffffffffffffffffffffff021916908373ffffffffffffffffffffffffffffffffffffffff1602179055508173ffffffffffffffffffffffffffffffffffffffff168173ffffffffffffffffffffffffffffffffffffffff167f8be0079c531659141344cd1fd0a4f28419497f9722a3daafe3b4186f6b6457e060405160405180910390a35050565b600081519050919050565b7f4e487b7100000000000000000000000000000000000000000000000000000000600052604160045260246000fd5b7f4e487b7100000000000000000000000000000000000000000000000000000000600052602260045260246000fd5b600060028204905060018216806200022257607f821691505b602082108103620002385762000237620001da565b5b50919050565b60008190508160005260206000209050919050565b60006020601f8301049050919050565b600082821b905092915050565b600060088302620002a27fffffffffffffffffffffffffffffffffffffffffffffffffffffffffffffffff8262000263565b620002ae868362000263565b95508019841693508086168417925050509392505050565b6000819050919050565b6000819050919050565b6000620002fb620002f5620002ef84620002c6565b620002d0565b620002c6565b9050919050565b6000819050919050565b6200031783620002da565b6200032f620003268262000302565b84845462000270565b825550505050565b600090565b6200034662000337565b620003538184846200030c565b505050565b5b818110156200037b576200036f6000826200033c565b60018101905062000359565b5050565b601f821115620003ca5762000394816200023e565b6200039f8462000253565b81016020851015620003af578190505b620003c7620003be8562000253565b83018262000358565b50505b505050565b600082821c905092915050565b6000620003ef60001984600802620003cf565b1980831691505092915050565b60006200040a8383620003dc565b9150826002028217905092915050565b6200042582620001a0565b67ffffffffffffffff811115620004415762000440620001ab565b5b6200044d825462000209565b6200045a8282856200037f565b600060209050601f8311600181146200049257600084156200047d578287015190505b620004898582620003fc565b865550620004f9565b601f198416620004a2866200023e565b60005b82811015620004cc57848901518255600182019150602085019450602081019050620004a5565b86831015620004ec5784890151620004e8601f891682620003dc565b8355505b6001600288020188555050505b505050505050565b61371880620005116000396000f3fe6080604052600436106101815760003560e01c806370a08231116100d1578063b88d4fde1161008a578063d85d3d2711610064578063d85d3d271461055e578063e985e9c51461057a578063f0293fd3146105b7578063f2fde38b146105f457610181565b8063b88d4fde146104cd578063c87b56dd146104f6578063d5abeb011461053357610181565b806370a08231146103e3578063715018a6146104205780638da5cb5b1461043757806395d89b4114610462578063a22cb4651461048d578063ac446002146104b657610181565b80632373ac221161013e57806342842e0e1161011857806342842e0e14610327578063453c2310146103505780636352211e1461037b5780636817c76c146103b857610181565b80632373ac22146102aa57806323b872dd146102d35780633ff1e05b146102fc57610181565b80630116bc2d1461018657806301ffc9a7146101b157806306fdde03146101ee578063081812fc14610219578063095ea7b31461025657806318160ddd1461027f575b600080fd5b34801561019257600080fd5b5061019b61061d565b6040516101a891906121d8565b60405180910390f35b3480156101bd57600080fd5b506101d860048036038101906101d3919061225f565b610630565b6040516101e591906121d8565b60405180910390f35b3480156101fa57600080fd5b50610203610712565b604051610210919061231c565b60405180910390f35b34801561022557600080fd5b50610240600480360381019061023b9190612374565b6107a4565b60405161024d91906123e2565b60405180910390f35b34801561026257600080fd5b5061027d60048036038101906102789190612429565b6107ea565b005b34801561028b57600080fd5b50610294610901565b6040516102a19190612478565b60405180910390f35b3480156102b657600080fd5b506102d160048036038101906102cc91906124bf565b610907565b005b3480156102df57600080fd5b506102fa60048036038101906102f591906124ec565b61092c565b005b34801561030857600080fd5b5061031161098c565b60405161031e9190612478565b60405180910390f35b34801561033357600080fd5b5061034e600480360381019061034991906124ec565b61099c565b005b34801561035c57600080fd5b506103656109bc565b6040516103729190612478565b60405180910390f35b34801561038757600080fd5b506103a2600480360381019061039d9190612374565b6109c2565b6040516103af91906123e2565b60405180910390f35b3480156103c457600080fd5b506103cd610a48565b6040516103da9190612478565b60405180910390f35b3480156103ef57600080fd5b5061040a6004803603810190610405919061253f565b610a4e565b6040516104179190612478565b60405180910390f35b34801561042c57600080fd5b50610435610b05565b005b34801561044357600080fd5b5061044c610b19565b60405161045991906123e2565b60405180910390f35b34801561046e57600080fd5b50610477610b43565b604051610484919061231c565b60405180910390f35b34801561049957600080fd5b506104b460048036038101906104af919061256c565b610bd5565b005b3480156104c257600080fd5b506104cb610beb565b005b3480156104d957600080fd5b506104f460048036038101906104ef91906126e1565b610c42565b005b34801561050257600080fd5b5061051d60048036038101906105189190612374565b610ca4565b60405161052a919061231c565b60405180910390f35b34801561053f57600080fd5b50610548610cb6565b6040516105559190612478565b60405180910390f35b61057860048036038101906105739190612805565b610cbc565b005b34801561058657600080fd5b506105a1600480360381019061059c919061284e565b610e6d565b6040516105ae91906121d8565b60405180910390f35b3480156105c357600080fd5b506105de60048036038101906105d9919061253f565b610f01565b6040516105eb91906128aa565b60405180910390f35b34801561060057600080fd5b5061061b6004803603810190610616919061253f565b610f21565b005b600c60009054906101000a900460ff1681565b60007f80ac58cd000000000000000000000000000000000000000000000000000000007bffffffffffffffffffffffffffffffffffffffffffffffffffffffff1916827bffffffffffffffffffffffffffffffffffffffffffffffffffffffff191614806106fb57507f5b5e139f000000000000000000000000000000000000000000000000000000007bffffffffffffffffffffffffffffffffffffffffffffffffffffffff1916827bffffffffffffffffffffffffffffffffffffffffffffffffffffffff1916145b8061070b575061070a82610fa4565b5b9050919050565b606060008054610721906128f4565b80601f016020809104026020016040519081016040528092919081815260200182805461074d906128f4565b801561079a5780601f1061076f5761010080835404028352916020019161079a565b820191906000526020600020905b81548152906001019060200180831161077d57829003601f168201915b5050505050905090565b60006107af8261100e565b6004600083815260200190815260200160002060009054906101000a900473ffffffffffffffffffffffffffffffffffffffff169050919050565b60006107f5826109c2565b90508073ffffffffffffffffffffffffffffffffffffffff168373ffffffffffffffffffffffffffffffffffffffff1603610865576040517f08c379a000000000000000000000000000000000000000000000000000000000815260040161085c90612997565b60405180910390fd5b8073ffffffffffffffffffffffffffffffffffffffff16610884611059565b73ffffffffffffffffffffffffffffffffffffffff1614806108b357506108b2816108ad611059565b610e6d565b5b6108f2576040517f08c379a00000000000000000000000000000000000000000000000000000000081526004016108e990612a29565b60405180910390fd5b6108fc8383611061565b505050565b600a5481565b61090f61111a565b80600c60006101000a81548160ff02191690831515021790555050565b61093d610937611059565b82611198565b61097c576040517f08c379a000000000000000000000000000000000000000000000000000000000815260040161097390612abb565b60405180910390fd5b61098783838361122d565b505050565b600061099661111a565b47905090565b6109b783838360405180602001604052806000815250610c42565b505050565b600b5481565b6000806109ce83611526565b9050600073ffffffffffffffffffffffffffffffffffffffff168173ffffffffffffffffffffffffffffffffffffffff1603610a3f576040517f08c379a0000000000000000000000000000000000000000000000000000000008152600401610a3690612b27565b60405180910390fd5b80915050919050565b60085481565b60008073ffffffffffffffffffffffffffffffffffffffff168273ffffffffffffffffffffffffffffffffffffffff1603610abe576040517f08c379a0000000000000000000000000000000000000000000000000000000008152600401610ab590612bb9565b60405180910390fd5b600360008373ffffffffffffffffffffffffffffffffffffffff1673ffffffffffffffffffffffffffffffffffffffff168152602001908152602001600020549050919050565b610b0d61111a565b610b176000611563565b565b6000600660009054906101000a900473ffffffffffffffffffffffffffffffffffffffff16905090565b606060018054610b52906128f4565b80601f0160208091040260200160405190810160405280929190818152602001828054610b7e906128f4565b8015610bcb5780601f10610ba057610100808354040283529160200191610bcb565b820191906000526020600020905b815481529060010190602001808311610bae57829003601f168201915b5050505050905090565b610be7610be0611059565b8383611629565b5050565b610bf361111a565b60003390508073ffffffffffffffffffffffffffffffffffffffff166108fc479081150290604051600060405180830381858888f19350505050158015610c3e573d6000803e3d6000fd5b5050565b610c53610c4d611059565b83611198565b610c92576040517f08c379a0000000000000000000000000000000000000000000000000000000008152600401610c8990612abb565b60405180910390fd5b610c9e84848484611795565b50505050565b6060610caf826117f1565b9050919050565b60095481565b600c60009054906101000a900460ff16610d0b576040517f08c379a0000000000000000000000000000000000000000000000000000000008152600401610d0290612c25565b60405180910390fd5b346008541115610d50576040517f08c379a0000000000000000000000000000000000000000000000000000000008152600401610d4790612c91565b60405180910390fd5b600954600a541115610d97576040517f08c379a0000000000000000000000000000000000000000000000000000000008152600401610d8e90612cfd565b60405180910390fd5b600b54600d60003373ffffffffffffffffffffffffffffffffffffffff1673ffffffffffffffffffffffffffffffffffffffff16815260200190815260200160002060009054906101000a900460ff1660ff1610610e2a576040517f08c379a0000000000000000000000000000000000000000000000000000000008152600401610e2190612d69565b60405180910390fd5b60006001600a54610e3b9190612db8565b9050600a6000815480929190610e5090612dec565b9190505550610e5f3382611903565b610e698183611921565b5050565b6000600560008473ffffffffffffffffffffffffffffffffffffffff1673ffffffffffffffffffffffffffffffffffffffff16815260200190815260200160002060008373ffffffffffffffffffffffffffffffffffffffff1673ffffffffffffffffffffffffffffffffffffffff16815260200190815260200160002060009054906101000a900460ff16905092915050565b600d6020528060005260406000206000915054906101000a900460ff1681565b610f2961111a565b600073ffffffffffffffffffffffffffffffffffffffff168173ffffffffffffffffffffffffffffffffffffffff1603610f98576040517f08c379a0000000000000000000000000000000000000000000000000000000008152600401610f8f90612ea6565b60405180910390fd5b610fa181611563565b50565b60007f01ffc9a7000000000000000000000000000000000000000000000000000000007bffffffffffffffffffffffffffffffffffffffffffffffffffffffff1916827bffffffffffffffffffffffffffffffffffffffffffffffffffffffff1916149050919050565b6110178161198e565b611056576040517f08c379a000000000000000000000000000000000000000000000000000000000815260040161104d90612b27565b60405180910390fd5b50565b600033905090565b816004600083815260200190815260200160002060006101000a81548173ffffffffffffffffffffffffffffffffffffffff021916908373ffffffffffffffffffffffffffffffffffffffff160217905550808273ffffffffffffffffffffffffffffffffffffffff166110d4836109c2565b73ffffffffffffffffffffffffffffffffffffffff167f8c5be1e5ebec7d5bd14f71427d1e84f3dd0314c0f7b2291e5b200ac8c7c3b92560405160405180910390a45050565b611122611059565b73ffffffffffffffffffffffffffffffffffffffff16611140610b19565b73ffffffffffffffffffffffffffffffffffffffff1614611196576040517f08c379a000000000000000000000000000000000000000000000000000000000815260040161118d90612f12565b60405180910390fd5b565b6000806111a4836109c2565b90508073ffffffffffffffffffffffffffffffffffffffff168473ffffffffffffffffffffffffffffffffffffffff1614806111e657506111e58185610e6d565b5b8061122457508373ffffffffffffffffffffffffffffffffffffffff1661120c846107a4565b73ffffffffffffffffffffffffffffffffffffffff16145b91505092915050565b8273ffffffffffffffffffffffffffffffffffffffff1661124d826109c2565b73ffffffffffffffffffffffffffffffffffffffff16146112a3576040517f08c379a000000000000000000000000000000000000000000000000000000000815260040161129a90612fa4565b60405180910390fd5b600073ffffffffffffffffffffffffffffffffffffffff168273ffffffffffffffffffffffffffffffffffffffff1603611312576040517f08c379a000000000000000000000000000000000000000000000000000000000815260040161130990613036565b60405180910390fd5b61131f83838360016119cf565b8273ffffffffffffffffffffffffffffffffffffffff1661133f826109c2565b73ffffffffffffffffffffffffffffffffffffffff1614611395576040517f08c379a000000000000000000000000000000000000000000000000000000000815260040161138c90612fa4565b60405180910390fd5b6004600082815260200190815260200160002060006101000a81549073ffffffffffffffffffffffffffffffffffffffff02191690556001600360008573ffffffffffffffffffffffffffffffffffffffff1673ffffffffffffffffffffffffffffffffffffffff168152602001908152602001600020600082825403925050819055506001600360008473ffffffffffffffffffffffffffffffffffffffff1673ffffffffffffffffffffffffffffffffffffffff16815260200190815260200160002060008282540192505081905550816002600083815260200190815260200160002060006101000a81548173ffffffffffffffffffffffffffffffffffffffff021916908373ffffffffffffffffffffffffffffffffffffffff160217905550808273ffffffffffffffffffffffffffffffffffffffff168473ffffffffffffffffffffffffffffffffffffffff167fddf252ad1be2c89b69c2b068fc378daa952ba7f163c4a11628f55a4df523b3ef60405160405180910390a46115218383836001611af5565b505050565b60006002600083815260200190815260200160002060009054906101000a900473ffffffffffffffffffffffffffffffffffffffff169050919050565b6000600660009054906101000a900473ffffffffffffffffffffffffffffffffffffffff16905081600660006101000a81548173ffffffffffffffffffffffffffffffffffffffff021916908373ffffffffffffffffffffffffffffffffffffffff1602179055508173ffffffffffffffffffffffffffffffffffffffff168173ffffffffffffffffffffffffffffffffffffffff167f8be0079c531659141344cd1fd0a4f28419497f9722a3daafe3b4186f6b6457e060405160405180910390a35050565b8173ffffffffffffffffffffffffffffffffffffffff168373ffffffffffffffffffffffffffffffffffffffff1603611697576040517f08c379a000000000000000000000000000000000000000000000000000000000815260040161168e906130a2565b60405180910390fd5b80600560008573ffffffffffffffffffffffffffffffffffffffff1673ffffffffffffffffffffffffffffffffffffffff16815260200190815260200160002060008473ffffffffffffffffffffffffffffffffffffffff1673ffffffffffffffffffffffffffffffffffffffff16815260200190815260200160002060006101000a81548160ff0219169083151502179055508173ffffffffffffffffffffffffffffffffffffffff168373ffffffffffffffffffffffffffffffffffffffff167f17307eab39ab6107e8899845ad3d59bd9653f200f220920489ca2b5937696c318360405161178891906121d8565b60405180910390a3505050565b6117a084848461122d565b6117ac84848484611afb565b6117eb576040517f08c379a00000000000000000000000000000000000000000000000000000000081526004016117e290613134565b60405180910390fd5b50505050565b60606117fc8261100e565b600060076000848152602001908152602001600020805461181c906128f4565b80601f0160208091040260200160405190810160405280929190818152602001828054611848906128f4565b80156118955780601f1061186a57610100808354040283529160200191611895565b820191906000526020600020905b81548152906001019060200180831161187857829003601f168201915b5050505050905060006118a6611c82565b905060008151036118bb5781925050506118fe565b6000825111156118f05780826040516020016118d8929190613190565b604051602081830303815290604052925050506118fe565b6118f984611c99565b925050505b919050565b61191d828260405180602001604052806000815250611d01565b5050565b61192a8261198e565b611969576040517f08c379a000000000000000000000000000000000000000000000000000000000815260040161196090613226565b60405180910390fd5b8060076000848152602001908152602001600020908161198991906133f2565b505050565b60008073ffffffffffffffffffffffffffffffffffffffff166119b083611526565b73ffffffffffffffffffffffffffffffffffffffff1614159050919050565b6001811115611aef57600073ffffffffffffffffffffffffffffffffffffffff168473ffffffffffffffffffffffffffffffffffffffff1614611a635780600360008673ffffffffffffffffffffffffffffffffffffffff1673ffffffffffffffffffffffffffffffffffffffff1681526020019081526020016000206000828254611a5b91906134c4565b925050819055505b600073ffffffffffffffffffffffffffffffffffffffff168373ffffffffffffffffffffffffffffffffffffffff1614611aee5780600360008573ffffffffffffffffffffffffffffffffffffffff1673ffffffffffffffffffffffffffffffffffffffff1681526020019081526020016000206000828254611ae69190612db8565b925050819055505b5b50505050565b50505050565b6000611b1c8473ffffffffffffffffffffffffffffffffffffffff16611d5c565b15611c75578373ffffffffffffffffffffffffffffffffffffffff1663150b7a02611b45611059565b8786866040518563ffffffff1660e01b8152600401611b67949392919061354d565b6020604051808303816000875af1925050508015611ba357506040513d601f19601f82011682018060405250810190611ba091906135ae565b60015b611c25573d8060008114611bd3576040519150601f19603f3d011682016040523d82523d6000602084013e611bd8565b606091505b506000815103611c1d576040517f08c379a0000000000000000000000000000000000000000000000000000000008152600401611c1490613134565b60405180910390fd5b805181602001fd5b63150b7a0260e01b7bffffffffffffffffffffffffffffffffffffffffffffffffffffffff1916817bffffffffffffffffffffffffffffffffffffffffffffffffffffffff191614915050611c7a565b600190505b949350505050565b606060405180602001604052806000815250905090565b6060611ca48261100e565b6000611cae611c82565b90506000815111611cce5760405180602001604052806000815250611cf9565b80611cd884611d7f565b604051602001611ce9929190613190565b6040516020818303038152906040525b915050919050565b611d0b8383611e4d565b611d186000848484611afb565b611d57576040517f08c379a0000000000000000000000000000000000000000000000000000000008152600401611d4e90613134565b60405180910390fd5b505050565b6000808273ffffffffffffffffffffffffffffffffffffffff163b119050919050565b606060006001611d8e8461206a565b01905060008167ffffffffffffffff811115611dad57611dac6125b6565b5b6040519080825280601f01601f191660200182016040528015611ddf5781602001600182028036833780820191505090505b509050600082602001820190505b600115611e42578080600190039150507f3031323334353637383961626364656600000000000000000000000000000000600a86061a8153600a8581611e3657611e356135db565b5b04945060008503611ded575b819350505050919050565b600073ffffffffffffffffffffffffffffffffffffffff168273ffffffffffffffffffffffffffffffffffffffff1603611ebc576040517f08c379a0000000000000000000000000000000000000000000000000000000008152600401611eb390613656565b60405180910390fd5b611ec58161198e565b15611f05576040517f08c379a0000000000000000000000000000000000000000000000000000000008152600401611efc906136c2565b60405180910390fd5b611f136000838360016119cf565b611f1c8161198e565b15611f5c576040517f08c379a0000000000000000000000000000000000000000000000000000000008152600401611f53906136c2565b60405180910390fd5b6001600360008473ffffffffffffffffffffffffffffffffffffffff1673ffffffffffffffffffffffffffffffffffffffff16815260200190815260200160002060008282540192505081905550816002600083815260200190815260200160002060006101000a81548173ffffffffffffffffffffffffffffffffffffffff021916908373ffffffffffffffffffffffffffffffffffffffff160217905550808273ffffffffffffffffffffffffffffffffffffffff16600073ffffffffffffffffffffffffffffffffffffffff167fddf252ad1be2c89b69c2b068fc378daa952ba7f163c4a11628f55a4df523b3ef60405160405180910390a4612066600083836001611af5565b5050565b600080600090507a184f03e93ff9f4daa797ed6e38ed64bf6a1f01000000000000000083106120c8577a184f03e93ff9f4daa797ed6e38ed64bf6a1f01000000000000000083816120be576120bd6135db565b5b0492506040810190505b6d04ee2d6d415b85acef81000000008310612105576d04ee2d6d415b85acef810000000083816120fb576120fa6135db565b5b0492506020810190505b662386f26fc10000831061213457662386f26fc10000838161212a576121296135db565b5b0492506010810190505b6305f5e100831061215d576305f5e1008381612153576121526135db565b5b0492506008810190505b6127108310612182576127108381612178576121776135db565b5b0492506004810190505b606483106121a5576064838161219b5761219a6135db565b5b0492506002810190505b600a83106121b4576001810190505b80915050919050565b60008115159050919050565b6121d2816121bd565b82525050565b60006020820190506121ed60008301846121c9565b92915050565b6000604051905090565b600080fd5b600080fd5b60007fffffffff0000000000000000000000000000000000000000000000000000000082169050919050565b61223c81612207565b811461224757600080fd5b50565b60008135905061225981612233565b92915050565b600060208284031215612275576122746121fd565b5b60006122838482850161224a565b91505092915050565b600081519050919050565b600082825260208201905092915050565b60005b838110156122c65780820151818401526020810190506122ab565b60008484015250505050565b6000601f19601f8301169050919050565b60006122ee8261228c565b6122f88185612297565b93506123088185602086016122a8565b612311816122d2565b840191505092915050565b6000602082019050818103600083015261233681846122e3565b905092915050565b6000819050919050565b6123518161233e565b811461235c57600080fd5b50565b60008135905061236e81612348565b92915050565b60006020828403121561238a576123896121fd565b5b60006123988482850161235f565b91505092915050565b600073ffffffffffffffffffffffffffffffffffffffff82169050919050565b60006123cc826123a1565b9050919050565b6123dc816123c1565b82525050565b60006020820190506123f760008301846123d3565b92915050565b612406816123c1565b811461241157600080fd5b50565b600081359050612423816123fd565b92915050565b600080604083850312156124405761243f6121fd565b5b600061244e85828601612414565b925050602061245f8582860161235f565b9150509250929050565b6124728161233e565b82525050565b600060208201905061248d6000830184612469565b92915050565b61249c816121bd565b81146124a757600080fd5b50565b6000813590506124b981612493565b92915050565b6000602082840312156124d5576124d46121fd565b5b60006124e3848285016124aa565b91505092915050565b600080600060608486031215612505576125046121fd565b5b600061251386828701612414565b935050602061252486828701612414565b92505060406125358682870161235f565b9150509250925092565b600060208284031215612555576125546121fd565b5b600061256384828501612414565b91505092915050565b60008060408385031215612583576125826121fd565b5b600061259185828601612414565b92505060206125a2858286016124aa565b9150509250929050565b600080fd5b600080fd5b7f4e487b7100000000000000000000000000000000000000000000000000000000600052604160045260246000fd5b6125ee826122d2565b810181811067ffffffffffffffff8211171561260d5761260c6125b6565b5b80604052505050565b60006126206121f3565b905061262c82826125e5565b919050565b600067ffffffffffffffff82111561264c5761264b6125b6565b5b612655826122d2565b9050602081019050919050565b82818337600083830152505050565b600061268461267f84612631565b612616565b9050828152602081018484840111156126a05761269f6125b1565b5b6126ab848285612662565b509392505050565b600082601f8301126126c8576126c76125ac565b5b81356126d8848260208601612671565b91505092915050565b600080600080608085870312156126fb576126fa6121fd565b5b600061270987828801612414565b945050602061271a87828801612414565b935050604061272b8782880161235f565b925050606085013567ffffffffffffffff81111561274c5761274b612202565b5b612758878288016126b3565b91505092959194509250565b600067ffffffffffffffff82111561277f5761277e6125b6565b5b612788826122d2565b9050602081019050919050565b60006127a86127a384612764565b612616565b9050828152602081018484840111156127c4576127c36125b1565b5b6127cf848285612662565b509392505050565b600082601f8301126127ec576127eb6125ac565b5b81356127fc848260208601612795565b91505092915050565b60006020828403121561281b5761281a6121fd565b5b600082013567ffffffffffffffff81111561283957612838612202565b5b612845848285016127d7565b91505092915050565b60008060408385031215612865576128646121fd565b5b600061287385828601612414565b925050602061288485828601612414565b9150509250929050565b600060ff82169050919050565b6128a48161288e565b82525050565b60006020820190506128bf600083018461289b565b92915050565b7f4e487b7100000000000000000000000000000000000000000000000000000000600052602260045260246000fd5b6000600282049050600182168061290c57607f821691505b60208210810361291f5761291e6128c5565b5b50919050565b7f4552433732313a20617070726f76616c20746f2063757272656e74206f776e6560008201527f7200000000000000000000000000000000000000000000000000000000000000602082015250565b6000612981602183612297565b915061298c82612925565b604082019050919050565b600060208201905081810360008301526129b081612974565b9050919050565b7f4552433732313a20617070726f76652063616c6c6572206973206e6f7420746f60008201527f6b656e206f776e6572206f7220617070726f76656420666f7220616c6c000000602082015250565b6000612a13603d83612297565b9150612a1e826129b7565b604082019050919050565b60006020820190508181036000830152612a4281612a06565b9050919050565b7f4552433732313a2063616c6c6572206973206e6f7420746f6b656e206f776e6560008201527f72206f7220617070726f76656400000000000000000000000000000000000000602082015250565b6000612aa5602d83612297565b9150612ab082612a49565b604082019050919050565b60006020820190508181036000830152612ad481612a98565b9050919050565b7f4552433732313a20696e76616c696420746f6b656e2049440000000000000000600082015250565b6000612b11601883612297565b9150612b1c82612adb565b602082019050919050565b60006020820190508181036000830152612b4081612b04565b9050919050565b7f4552433732313a2061646472657373207a65726f206973206e6f74206120766160008201527f6c6964206f776e65720000000000000000000000000000000000000000000000602082015250565b6000612ba3602983612297565b9150612bae82612b47565b604082019050919050565b60006020820190508181036000830152612bd281612b96565b9050919050565b7f4d696e74696e67206973204e6f7420416c6c6f77656420524e00000000000000600082015250565b6000612c0f601983612297565b9150612c1a82612bd9565b602082019050919050565b60006020820190508181036000830152612c3e81612c02565b9050919050565b7f57726f6e67204d696e742056616c756500000000000000000000000000000000600082015250565b6000612c7b601083612297565b9150612c8682612c45565b602082019050919050565b60006020820190508181036000830152612caa81612c6e565b9050919050565b7f536f6c644f757400000000000000000000000000000000000000000000000000600082015250565b6000612ce7600783612297565b9150612cf282612cb1565b602082019050919050565b60006020820190508181036000830152612d1681612cda565b9050919050565b7f6c696d6974204578636565646564000000000000000000000000000000000000600082015250565b6000612d53600e83612297565b9150612d5e82612d1d565b602082019050919050565b60006020820190508181036000830152612d8281612d46565b9050919050565b7f4e487b7100000000000000000000000000000000000000000000000000000000600052601160045260246000fd5b6000612dc38261233e565b9150612dce8361233e565b9250828201905080821115612de657612de5612d89565b5b92915050565b6000612df78261233e565b91507fffffffffffffffffffffffffffffffffffffffffffffffffffffffffffffffff8203612e2957612e28612d89565b5b600182019050919050565b7f4f776e61626c653a206e6577206f776e657220697320746865207a65726f206160008201527f6464726573730000000000000000000000000000000000000000000000000000602082015250565b6000612e90602683612297565b9150612e9b82612e34565b604082019050919050565b60006020820190508181036000830152612ebf81612e83565b9050919050565b7f4f776e61626c653a2063616c6c6572206973206e6f7420746865206f776e6572600082015250565b6000612efc602083612297565b9150612f0782612ec6565b602082019050919050565b60006020820190508181036000830152612f2b81612eef565b9050919050565b7f4552433732313a207472616e736665722066726f6d20696e636f72726563742060008201527f6f776e6572000000000000000000000000000000000000000000000000000000602082015250565b6000612f8e602583612297565b9150612f9982612f32565b604082019050919050565b60006020820190508181036000830152612fbd81612f81565b9050919050565b7f4552433732313a207472616e7366657220746f20746865207a65726f2061646460008201527f7265737300000000000000000000000000000000000000000000000000000000602082015250565b6000613020602483612297565b915061302b82612fc4565b604082019050919050565b6000602082019050818103600083015261304f81613013565b9050919050565b7f4552433732313a20617070726f766520746f2063616c6c657200000000000000600082015250565b600061308c601983612297565b915061309782613056565b602082019050919050565b600060208201905081810360008301526130bb8161307f565b9050919050565b7f4552433732313a207472616e7366657220746f206e6f6e20455243373231526560008201527f63656976657220696d706c656d656e7465720000000000000000000000000000602082015250565b600061311e603283612297565b9150613129826130c2565b604082019050919050565b6000602082019050818103600083015261314d81613111565b9050919050565b600081905092915050565b600061316a8261228c565b6131748185613154565b93506131848185602086016122a8565b80840191505092915050565b600061319c828561315f565b91506131a8828461315f565b91508190509392505050565b7f45524337323155524953746f726167653a2055524920736574206f66206e6f6e60008201527f6578697374656e7420746f6b656e000000000000000000000000000000000000602082015250565b6000613210602e83612297565b915061321b826131b4565b604082019050919050565b6000602082019050818103600083015261323f81613203565b9050919050565b60008190508160005260206000209050919050565b60006020601f8301049050919050565b600082821b905092915050565b6000600883026132a87fffffffffffffffffffffffffffffffffffffffffffffffffffffffffffffffff8261326b565b6132b2868361326b565b95508019841693508086168417925050509392505050565b6000819050919050565b60006132ef6132ea6132e58461233e565b6132ca565b61233e565b9050919050565b6000819050919050565b613309836132d4565b61331d613315826132f6565b848454613278565b825550505050565b600090565b613332613325565b61333d818484613300565b505050565b5b818110156133615761335660008261332a565b600181019050613343565b5050565b601f8211156133a65761337781613246565b6133808461325b565b8101602085101561338f578190505b6133a361339b8561325b565b830182613342565b50505b505050565b600082821c905092915050565b60006133c9600019846008026133ab565b1980831691505092915050565b60006133e283836133b8565b9150826002028217905092915050565b6133fb8261228c565b67ffffffffffffffff811115613414576134136125b6565b5b61341e82546128f4565b613429828285613365565b600060209050601f83116001811461345c576000841561344a578287015190505b61345485826133d6565b8655506134bc565b601f19841661346a86613246565b60005b828110156134925784890151825560018201915060208501945060208101905061346d565b868310156134af57848901516134ab601f8916826133b8565b8355505b6001600288020188555050505b505050505050565b60006134cf8261233e565b91506134da8361233e565b92508282039050818111156134f2576134f1612d89565b5b92915050565b600081519050919050565b600082825260208201905092915050565b600061351f826134f8565b6135298185613503565b93506135398185602086016122a8565b613542816122d2565b840191505092915050565b600060808201905061356260008301876123d3565b61356f60208301866123d3565b61357c6040830185612469565b818103606083015261358e8184613514565b905095945050505050565b6000815190506135a881612233565b92915050565b6000602082840312156135c4576135c36121fd565b5b60006135d284828501613599565b91505092915050565b7f4e487b7100000000000000000000000000000000000000000000000000000000600052601260045260246000fd5b7f4552433732313a206d696e7420746f20746865207a65726f2061646472657373600082015250565b6000613640602083612297565b915061364b8261360a565b602082019050919050565b6000602082019050818103600083015261366f81613633565b9050919050565b7f4552433732313a20746f6b656e20616c7265616479206d696e74656400000000600082015250565b60006136ac601c83612297565b91506136b782613676565b602082019050919050565b600060208201905081810360008301526136db8161369f565b905091905056fea26469706673582212206cde593453c66e24ea3a62d89392f9d1d3409bf9751808c3aa3a67b8efa60b5f64736f6c63430008110033",
  "linkReferences": {},
  "deployedLinkReferences": {}
}